:100000000C94E6010C940E020C940E020C940E0259
:100010000C940E020C940E020C940E020C940E0220
:100020000C940E020C940E020C940E020C940E0210
:100030000C940E020C940E020C940E020C940E0200
:100040000C94C80C0C940E020C940E020C940E022C
:100050000C940E020C940E020C940E020C940E02E0
:100060000C940E020C940E0200010800060400011C
:100070004500008200004000200D0A436F6E746549
:100080006E742D547970653A206170706C6963618B
:1000900074696F6E2F782D7777772D666F726D2D5F
:1000A00075726C656E636F6465640D0A0D0A0043BA
:1000B0006F6E74656E742D4C656E6774683A2000BF
:1000C0000D0A557365722D4167656E743A20417251
:1000D0006475696E6F2F312E300D0A416363657050
:1000E000743A202A2F2A0D0A000D0A002048545481
:1000F000502F312E300D0A486F73743A2000504F44
:10010000535420000D0A557365722D4167656E7456
:100110003A2041726475696E6F2F312E300D0A419D
:1001200063636570743A20746578742F68746D6CBD
:100130000D0A0D0A0020485454502F312E300D0A5C
:10014000486F73743A200047455420004854545077
:100150002F312E302034303120556E617574686F28
:1001600072697A65640D0A436F6E74656E742D54FE
:100170007970653A20746578742F68746D6C0D0A17
:100180000D0A3C68313E34303120556E617574681B
:100190006F72697A65643C2F68313E003C68313E7D
:1001A000323030204F4B3C2F68313E003C2F626F85
:1001B00064793E3C2F68746D6C3E0056312E3020C1
:1001C0003C6120687265663D22687474703A2F2F16
:1001D0007777772E6E75656C656374726F6E696381
:1001E000732E636F6D223E7777772E6E75656C6523
:1001F0006374726F6E6963732E636F6D3C2F613E23
:10020000003C2F63656E7465723E3C68723E003C34
:1002100062723E3C2F666F6E743E3C2F68323E0029
:100220003C62723E20526561642064696769746152
:100230006C20616E616C6F6720696E7075747320DD
:1002400048455245003C62723E20436F6E74726FA7
:100250006C206469676974616C206F757470757463
:1002600073003C68723E3C62723E3C68323E3C66C3
:100270006F6E7420636F6C6F723D22626C756522C5
:100280003E2D2D2050757420796F75722041524497
:1002900055494E4F206F6E6C696E65202D2D2000E4
:1002A0003C63656E7465723E3C68313E57656C63B5
:1002B0006F6D6520746F2041726475696E6F2045A3
:1002C0004E4332384A36302045746865726E657424
:1002D00020536869656C642056312E303C2F68319C
:1002E0003E003C68746D6C3E3C686561643E3C74E5
:1002F00069746C653E41726475696E6F20454E434A
:1003000032384A36302045746865726E6574205301
:100310006869656C642056312E303C2F7469746CAA
:10032000653E3C2F686561643E3C626F64793E00C7
:10033000485454502F312E3020323030204F4B0D46
:100340000A436F6E74656E742D547970653A20742B
:100350006578742F68746D6C0D0A507261676D61F9
:100360003A206E6F2D63616368650D0A0D0A000007
:10037000000000240027002A0000000000250028BB
:10038000002B0000000000230026002900040404C4
:10039000040404040402020202020203030303032E
:1003A000030102040810204080010204081020010B
:1003B00002040810200000000700020100000304EE
:1003C00006000000000000000000FE0B11241FBE0C
:1003D000CFEFD8E0DEBFCDBF11E0A0E0B1E0E6E1B5
:1003E000FCE102C005900D92AC31B107D9F713E0E2
:1003F000ACE1B1E001C01D92AD37B107E1F713E008
:10040000CCECD3E004C02297FE010E94F10DCA3C5F
:10041000D107C9F70E94C10C0C94090E0C9400007E
:10042000FB01DC014150504030F08D91019080196A
:1004300019F40020B9F7881B990B0895FB019F015F
:10044000E8944230C4F04532B4F44A3029F497FBC2
:100450001EF4909581959F4F642F77270E94F50D8C
:10046000805D8A330CF0895D8193CB010097A1F701
:1004700016F45DE251931082C9010C943F02DC0135
:10048000FC01672F71917723E1F7329704C07C91CB
:100490006D9370836291AE17BF07C8F308950F93F1
:1004A0001F93CF93DF938C01EB018AE060E00E9401
:1004B000A20D8AE78EBD0DB407FEFDCF08C088816E
:1004C0008EBD0DB407FEFDCF0150104021960115E1
:1004D0001105A9F78AE061E00E94A20DDF91CF919A
:1004E0001F910F9108950F931F93CF93DF938C016A
:1004F000EB018AE060E00E94A20D8AE38EBD0DB49C
:1005000007FEFDCF9801FE0108C01EBC0DB407FE1A
:10051000FDCF215030408EB5819321153105A9F7CB
:10052000C00FD11F18828AE061E00E94A20DDF9106
:10053000CF911F910F910895FF920F931F93082F52
:10054000162FF42E8AE060E00E94A20D1F71102B7E
:100550001EBD0DB407FEFDCFFEBC0DB407FEFDCFE2
:100560008AE061E00E94A20D1F910F91FF90089513
:100570001F93CF93DF93182FC82FD0E0C076D07091
:1005800080911C0190E0C817D90791F080EA6FE1D3
:1005900043E00E949C0285E0D595C7958A95E1F7D6
:1005A00080E86FE14C2F0E949C02107610931C0192
:1005B000DF91CF911F9108950F931F93182F062F4E
:1005C0000E94B80280E4612F402F0E949C021F917C
:1005D0000F910895682F677085E70E94DC020895E7
:1005E0000F931F93182F062F8AE060E00E94A20D40
:1005F000802F8F71812B8EBD0DB407FEFDCF1EBCE9
:100600000DB407FEFDCF07FF04C01EBC0DB407FEEE
:10061000FDCF8AE061E00E94A20D8EB51F910F917F
:1006200008951F93182F0E94B80280E0612F0E9446
:10063000F0021F910895AF92BF92CF92DF92EF9296
:10064000FF920F931F93CF93DF936C015B0189E3BC
:100650000E941103882319F4C0E0D0E07BC080E041
:1006600060911D010E94DC0260911E0181E00E94E8
:10067000DC028AE360E00E94F002082F10E0109391
:100680001E0100931D018AE360E00E94F002382FF2
:1006900020E0202B312B30931E0120931D018AE393
:1006A00060E00E94F002E82E8AE360E00E94F0021F
:1006B000F82E8AE360E00E94F002082F10E08AE33F
:1006C00060E00E94F002382F20E0202B312B27FD24
:1006D00003C0C0E0D0E011C0CE2DD0E09F2D80E05F
:1006E000C82BD92BC601019724978C179D0708F4B6
:1006F000EC01CE01B5010E9473028CE060911D01F6
:100700000E94DC0260911E018DE00E94DC0260917B
:100710001D0170911E01CB0101978F5F994138F047
:100720008CE06EEF0E94DC028DE069E10CC061504C
:100730008CE00E94DC0220911D0130911E012150AD
:1007400030408DE0632F0E94DC0280E86EE140E4DF
:100750000E949C02CE01DF91CF911F910F91FF90DB
:10076000EF90DF90CF90BF90AF9008950F931F93BD
:10077000CF93DF93EC018B010FC08CE10E9411033A
:1007800081FF0AC080E86FE140E80E949C0280EA95
:100790006FE140E80E949C0280E06FE10E94F0025D
:1007A00083FDEBCF82E06FEF0E94DC0283E069E122
:1007B0000E94DC02CE018150682F86E00E94DC029C
:1007C0009E012150364E87E0632F0E94DC028AE7AB
:1007D00060E040E00E949C02CE01B8010E944F02FE
:1007E00080E86FE148E00E949C02DF91CF911F9169
:1007F0000F9108950F931F93982F162F072F84EDB5
:10080000692F0E94DC0286ED612F0E94DC0287EDD9
:10081000602F0E94DC0204C08FE090E00E943A0D3D
:100820008AEE0E94110380FDF7CF1F910F9108956A
:100830000F931F938C018AE061E00E94820D8AE091
:1008400061E00E94A20D8BE061E00E94820D8DE0CC
:1008500061E00E94820D8CE060E00E94820D8BE0DE
:1008600060E00E94A20D8DE060E00E94A20D80E594
:100870008CBD8DB581608DBD8FEF60E04FEF0E9424
:100880009C0262E370E080E090E00E94100D109204
:100890001E0110921D0188E060E00E94DC0289E0E8
:1008A00060E00E94DC028CE060E00E94DC028DE0EF
:1008B00060E00E94DC028AE06EEF0E94DC028BE0C6
:1008C00069E10E94DC0284E06FEF0E94DC0285E0B7
:1008D00069E10E94DC0286E06FEF0E94DC0287E0A3
:1008E0006FE10E94DC0288E360EB0E94DC0288E298
:1008F0006FE30E94DC0289E260E30E94DC0280E395
:1009000069EF0E94DC0281E367EF0E94DC0280EC69
:100910006DE00E94DC0281EC60E00E94DC0280E875
:1009200062EC42E30E949C0286EC62E10E94DC02DF
:1009300087EC6CE00E94DC0284EC62E10E94DC0245
:100940008AEC6CED0E94DC028BEC65E00E94DC021C
:1009500084EEF80160810E94DC0285EEF80161817D
:100960000E94DC0282EEF80162810E94DC0283EECA
:10097000F80163810E94DC0280EEF80164810E942C
:10098000DC0281EEF80165810E94DC0280E160E01A
:1009900071E00E94FA038FE10E94B80280E86BE1E7
:1009A00040EC0E949C0280E86FE144E00E949C02BF
:1009B0001F910F910895682F84ED0E94DC0282ED53
:1009C00061E00E94DC028FE090E00E943A0D8AEE26
:1009D0000E94110380FDFBCF82ED60E00E94DC02EB
:1009E00089ED0E94110390E0089581E10E94DB04EB
:1009F00020E0892B09F021E0822F0895CF92DF9229
:100A0000EF92FF920F931F93CF93DF936C014130CE
:100A100081F4685070407B0100E010E0685F7F4F18
:100A200021E130E040E050E0E20EF31E041F151F0C
:100A300015C0423021F0EE24FF2487010FC068501A
:100A400070407B0100E010E0685F7F4F86E090E03F
:100A5000A0E0B0E0E80EF91E0A1F1B1FF601EB0133
:100A600016C0808190E0A0E0B0E0BA2FA92F982FA7
:100A70008827218130E040E050E0822B932BA42B8B
:100A8000B52BE80EF91E0A1F1B1F32962297C230A3
:100A9000D10538F7FB01EE7FEC0DFD1D60FF15C0A1
:100AA000808190E0A0E0B0E0BA2FA92F982F88278E
:100AB00008C02FEF3FEF40E050E0E222F322042392
:100AC0001523E80EF91E0A1F1B1FC801AA27BB2702
:100AD0000097A105B10569F7970120953095C901E7
:100AE000DF91CF911F910F91FF90EF90DF90CF900A
:100AF0000895CF93DF93EC015093210140931001AF
:100B000020E030E0F901E85BFE4FDB01A20FB31FEC
:100B10008C9180832F5F3F4F2430310599F720E07F
:100B200030E0F901EE5BFE4FDE01A20FB31F8C91A6
:100B300080832F5F3F4F2630310599F7DF91CF91AA
:100B40000895FC0169327105B0F08485883099F40C
:100B50008585863081F4DF019696E8E4F1E09C918A
:100B60008081981741F41196319681E0EC34F807B2
:100B7000B1F781E0089580E00895FC016A327105C3
:100B8000D0F084858830B9F485858823A1F48685E2
:100B9000853489F4DF01E8E4F1E05E969C915E978C
:100BA0008081981741F41196319681E0EC34F80772
:100BB000A1F781E0089580E008950F931F938C01C1
:100BC000FC01108E118E80E4848B158A868BC801FF
:100BD0000E9664E170E040E00E94FE04F801908F00
:100BE000818F1F910F910895AC01FC01A8E4B1E041
:100BF000828D868F8D91828F319681E0AC34B807DB
:100C0000B9F7CA010E94DD050895FC01B99694E088
:100C10008081680F711D84816483442311F0808377
:100C200001C0108291503197992319F0672F7727CF
:100C3000EFCF08950F931F938C01FC0194A182A123
:100C400084A392A395A183A185A393A3C8010E9425
:100C50000506F80112AA13AA80E586A71F910F9135
:100C600008956A5C7F4FDC01A60FB71F6653704082
:100C700003C08D936F5F7F4FFA014F5F5F4F849189
:100C80008823B9F7CB010895FF920F931F93CF9359
:100C9000DF93EC01F62E142F022FAC01DC0120E0D3
:100CA00030E0F901E45CFE4F80818C93F901EE5B4A
:100CB000FE4F808116968C9316972F5F3F4F1196AB
:100CC0002630310571F788E08C871D86DE01E0E76C
:100CD000F0E084911E968C931E973196119680E0D9
:100CE000E937F807B1F78CE2898B86E08F8B20E03B
:100CF00030E0F901EE5CFE4F8081FA01868FF90148
:100D0000E85BFE4F8081FA01828F2F5F3F4F4F5F7C
:100D10005F4F2430310569F7CE010E94DD051CA329
:100D20000DA38BE08AA3FBA2FE01B69680E0119290
:100D30008F5F8830E1F78091110188A78D5F8093E4
:100D4000110180E68EA792E09FA784E088AB19AAE4
:100D50001AAA1BAA1CAA1DAA9EAB8FAB83E088AF60
:100D600019AECE014A9660E270E042E00E94FE04B5
:100D70009AAB8BAB8AE390E0BE010E94B603DF9191
:100D8000CF911F910F91FF900895CF93DF93EC01C6
:100D9000AC0122E431E0FC01D9019FEF90838D91F9
:100DA0008683319681E0A834B807C1F788E08C8744
:100DB00086E08D87DE01E8E6F0E084911E968C9354
:100DC0001E973196119680E0E037F807B1F7F901E8
:100DD00081919F01FA01868B10A24F5F5F4FF1E076
:100DE00028343F07A1F7DE015C9620E030E0FB01EC
:100DF000E20FF31F80811A968C931A97F901E85B32
:100E0000FE4F80818D932F5F3F4F2430310579F75E
:100E10008AE290E0BE010E94B603DF91CF9108956F
:100E2000EF92FF920F931F938C017B01CB01889669
:100E3000F801908B818BC8010E94DD05F80112AA90
:100E400013AA8CE190E0E80EF91EC8014A96B7019A
:100E500042E00E94FE04F80192AB83ABC7014A96C0
:100E6000B8010E94B6031F910F91FF90EF90089573
:100E7000CF93DF93EC01FC01A2E4B1E08681808393
:100E80008D918683319681E0A834B807B9F7406127
:100E90004FA76115710521F4CE0161E070E001C03A
:100EA000CE0141E00E941A06188A88E2898BCE01A1
:100EB0000E94F40584E088AB19AACE014A966CE141
:100EC00070E042E00E94FE049AAB8BAB86E390E0B8
:100ED000BE010E94B603DF91CF910895EF92FF9279
:100EE0000F931F938C017B0160912201709123016C
:100EF00040E00E94380789E1F80187A7C801B701DF
:100F00000E9410071F910F91FF90EF900895CF93CB
:100F1000DF93EC01FC01A2E4B1E0868180838D9136
:100F20008683319681E0A834B807B9F7188A8CE235
:100F3000898BCE010E94F40582E18FA7CE0161E08A
:100F400070E040E00E941A061EA21FA280911101CB
:100F500088A719A68D5F8093110182E08EAB84E093
:100F60008FAB95E098AF19AE80E68EA798AB88E777
:100F700089ABCE014A9660E270E042E00E94FE0436
:100F80009AAB8BAB8AE390E0BE010E94B603DF917F
:100F9000CF9108950F931F93CF93DF93EC018B01B3
:100FA000FC01A2E4B1E0868180838D918683319635
:100FB00081E0A834B807B9F7CE010E94F4051AA25F
:100FC0008CA1883F18F08DA18F5F8DA38CA1885FC5
:100FD0008CA3C801BE010E94B603DF91CF911F917F
:100FE0000F910895CF93DF93AC01EC0122E431E03F
:100FF000FC01D901868180838D918683319681E0C1
:10100000A834B807B9F7FA01148A82E0858B8E8973
:1010100088A3F90181919F018E8B2196F1E02834FC
:101020003F07A9F7FA017C96A8E4B1E080818287A6
:101030008D91819381E0AC34B807C1F78AE290E0EA
:10104000BA010E94B603DF91CF9108958F929F92CB
:10105000AF92BF92CF92DF92EF92FF920F931F93C6
:10106000DF93CF9300D000D00F92CDB7DEB75C01F5
:101070007B016115710579F580910C01823079F45D
:1010800080910D0190910E01892B49F40E94F50485
:10109000882329F0C50168E371E00E94C5068091AC
:1010A0000D0190910E01019690930E0180930D0118
:1010B00080911F01813009F024C382E080931F01D9
:1010C00060910F016F5F60930F01C50140E020E563
:1010D0000E94440616C30E94A105882381F1D50110
:1010E00055968C91813019F4C5010E94F2078091C8
:1010F0000C01823009F005C3F5018589823009F0C1
:1011000000C39501E8E3F1E0D5015C969C915C9702
:101110008081981709F0F5C21196319681E0EC3381
:10112000F80799F7ECE3F1E0D90156968C91819399
:101130002F5F3F4FB1E0E234FB07B1F7F7C2C501C3
:10114000B7010E94BD05882309F4DBC2F501978928
:10115000913089F482A1883071F4E0913601F091E8
:101160003701309719F0C5014A960995C501B701B5
:101170000E94CA07C6C2F6E3EF16F10418F49630CF
:1011800009F0BFC2D50194969C9194979B3009F0C9
:1011900065C2E2E3F1E05A969C915A9780819817D4
:1011A00009F0AFC21196319681E0E633F80799F75E
:1011B000C0C284FFE0C1C50160E070E040E00E9471
:1011C000380788E1D5019F968C939F9780912001E5
:1011D000882309F090C0D696EE24FF2404C08D9396
:1011E0000894E11CF11CF701E95BFE4F8491882310
:1011F000B1F7E6E3F0E0EE0EFF1ED501AE0DBF1D28
:101200008AEC9FEFE80EF91E80912C0190912D0140
:101210009C0104C08D930894E11CF11CF9012F5F1F
:101220003F4F84918823B1F7A6E3B0E0EA0EFB1E9E
:10123000D501AE0DBF1DEAECFFEFEE0EFF1E809153
:101240002E0190912F019C01F90105C08D93089406
:10125000E11CF11C3196309771F486E390E0E80EC2
:10126000F91ED501AE0DBF1DEAECFFEFEE0EFF1E1D
:1012700085E391E008C08081882341F7EECF2D936C
:101280000894E11CF11CFC01019624912223B9F77A
:1012900086E390E0E80EF91ED501AE0DBF1DEAEC25
:1012A000FFEFEE0EFF1E80913001909131019C0105
:1012B00004C08D930894E11CF11CF9012F5F3F4F8E
:1012C00084918823B1F786E390E0E80EF91ED501FA
:1012D000AE0DBF1DEAECFFEFEE0EFF1E84E091E0C5
:1012E00004C02D930894E11CF11CFC01019624918B
:1012F0002223B9F738C12091260130912701C50179
:10130000C6962115310521F4DC01EE24FF2413C01B
:10131000DC01EE24FF2404C08D930894E11CF11C31
:10132000F901EE0DFF1D84918823B1F70AC08D935A
:101330000894E11CF11CF701E250FF4F84918823CF
:10134000B1F786E390E0E80EF91ED501AE0DBF1DA2
:10135000EAECFFEFEE0EFF1E80912C0190912D0123
:101360009C0104C08D930894E11CF11CF9012F5FCE
:101370003F4F84918823B1F786E390E0E80EF91E91
:10138000D501AE0DBF1DEAECFFEFEE0EFF1E8CEE99
:1013900090E004C02D930894E11CF11CFC0101961F
:1013A00024912223B9F786E390E0E80EF91ED501D7
:1013B000AE0DBF1DEAECFFEFEE0EFF1E8091300177
:1013C000909131019C0104C08D930894E11CF11CA3
:1013D000F9012F5F3F4F84918823B1F78091240159
:1013E00090912501892B71F086E390E0E80EF91EBB
:1013F000D501AE0DBF1DEAECFFEFEE0EFF1E89EE2C
:1014000090E012C086E390E0E80EF91ED501AE0D23
:10141000BF1DEAECFFEFEE0EFF1E80EC90E029C04E
:101420002D930894E11CF11CFC01019624912223C8
:10143000B9F786E390E0E80EF91ED501AE0DBF1DA9
:10144000EAECFFEFEE0EFF1E809124019091250142
:101450009C0104C08D930894E11CF11CF9012F5FDD
:101460003F4F84918823B1F7CDCF2D930894E11C91
:10147000F11CFC01019624912223B9F786E390E048
:10148000E80EF91ED501AE0DBF1DEAECFFEFEE0E22
:10149000FF1E8FEA90E004C02D930894E11CF11C1C
:1014A000FC01019624912223B9F7E0912801F091E3
:1014B0002901DF010D900020E9F71197CD018E1B66
:1014C0009F0B8E010F5F1F4FB8014AE050E00E9452
:1014D0001E0286E390E0E80EF91ED501AE0DBF1D99
:1014E000EAECFFEFEE0EFF1EF80114C08D93089496
:1014F000E11CF11C319671F486E390E0E80EF91ED0
:10150000D501AE0DBF1DEAECFFEFEE0EFF1E89E721
:1015100090E008C08081882349F7EECF2D9308948E
:10152000E11CF11CFC01019624912223B9F786E30A
:1015300090E0E80EF91ED501AE0DBF1DEAECFFEFFD
:10154000EE0EFF1E80912801909129019C01F90166
:1015500005C08D930894E11CF11C3196309719F069
:1015600080818823B1F783E080931F01C501B70113
:101570000E941007C6C0D50150969C91509780E0FC
:1015800051962C915197C22EDD24C82AD92A9E96B5
:101590002C91822F82958F7090E0880F991F880F71
:1015A000991FC81AD90AECEEFFEFCE0EDF1ED7FE48
:1015B00002C0CC24DD24760180911F01833069F5BF
:1015C000FDE0CF16D10448F184E080931F018090A4
:1015D0002A0190902B0181149104F9F0D5019E9677
:1015E0000C9102950F7010E0000F111F000F111FDA
:1015F000055D1F4FB501600F711F80E091E043E072
:1016000050E00E941002B80169507040009711F438
:1016100080E001C081E0F4010995F50187A582FF12
:101620000AC0E0912A01F0912B01309721F082E06D
:1016300060E070E00995D5019F968C9180FF07C00E
:101640000894C11CD11CC501B60149E058C0C114A1
:10165000D10409F458C0C501B60150C080912101E0
:10166000981709F04EC0F50195A1809110019817C7
:1016700009F047C087A581FF04C0C5010E94870704
:1016800040C084FF3EC0D50150969C91509780E0A9
:1016900051962C915197422F50E0482B592B9E96F2
:1016A0002C91822F82958F7090E0880F991F880F60
:1016B000991F481B590B4451504057FF02C040E04E
:1016C00050E05093230140932201F50186A5452B5C
:1016D00069F082958F70E82EFF24EE0CFF1CEE0C53
:1016E000FF1C82E290E0E80EF91E0DC0D5019F9626
:1016F0008C9180FF06C0C50160E070E040E00E9470
:101700003807EE24FF24C7010F900F900F900F9021
:101710000F90CF91DF911F910F91FF90EF90DF908D
:10172000CF90BF90AF909F908F90089510920C0132
:10173000E8CFF50187A581FF1ECF3BCD0895CB01F2
:10174000BA010E946E070895CB01BA01A9010E9457
:1017500031060895CB01BA010E9426080895CB01F5
:10176000BA01A9010E9479050895CB01BA010E942E
:101770001B030895CB010E94180482E00E94EA0234
:101780006AE070E080E090E00E94100D84E160E883
:1017900078E00E94FA0364EF71E080E090E00E943C
:1017A000100D84E160E979E00E94FA0364EF71E0D2
:1017B00080E090E00E94100D84E160E878E00E94F3
:1017C000FA0364EF71E080E090E00E94100D84E184
:1017D00060E979E00E94FA0364EF71E080E090E054
:1017E0000E94100D84E166E774E00E94FA0364E64B
:1017F00070E080E090E00E94100D08958CE491E08C
:101800000E949E0B08958CE491E06DE471E040E04D
:1018100050E020E333E00E94A40B0895EF92FF9282
:101820000F931F937C010E94030CAC010CE411E0A8
:10183000C801B70122EE32E00E94A40BAC01C8013E
:10184000B70120EA32E00E94A40BAC01C801B70145
:1018500022E632E00E94A40BAC01C801B70125E4E6
:1018600032E00E94A40BAC01C801B70120E232E0D3
:101870000E94A40BAC01C801B7012FE032E00E9426
:10188000A40BAC01C801B70121E032E00E94A40B17
:10189000AC01C801B7012BEB31E00E94A40BAC01F5
:1018A000C801B7012CEA31E00E94A40B1F910F91EF
:1018B000FF90EF900895CF93DF938CE491E066E280
:1018C00072E04DE451E00E94B50BAC018CE491E074
:1018D0006DE471E00E94AA0BEC01009771F3BC016A
:1018E000635B7E4F84E091E044E050E00E94100290
:1018F000009751F00E94030CAC018CE491E06DE480
:1019000071E02CE931E018C0CF5ADE4F89E091E058
:10191000BE0142E050E00E941002009729F48DE4DD
:1019200091E00E940E0C0AC08CE491E06DE471E03D
:1019300040E050E02CE431E00E94A40BAC018CE4C8
:1019400091E06DE471E00E949F0BB7CFEF92FF92A0
:101950000F931F930CE411E082E1E82E81E0F82E52
:10196000C801B7010E94BA0BC801B70148E151E0B4
:1019700020E530E00E94AF0B1F910F91FF90EF9098
:1019800008950E94480D0E94A60C0E945B0CFDCF9A
:101990001F920F920FB60F9211242F933F938F93A4
:1019A0009F93AF93BF938091780390917903A09117
:1019B0007A03B0917B0330917C030196A11DB11D88
:1019C000232F2D5F2D3720F02D570196A11DB11D1E
:1019D00020937C038093780390937903A0937A03F8
:1019E000B0937B038091740390917503A09176036B
:1019F000B09177030196A11DB11D8093740390935C
:101A00007503A0937603B0937703BF91AF919F9135
:101A10008F913F912F910F900FBE0F901F901895AF
:101A2000EF92FF920F931F937B018C018FB7F89475
:101A3000409178035091790360917A0370917B0310
:101A40008FBF2FB7F8948091780390917903A0917C
:101A50007A03B0917B032FBF841B950BA60BB70BAA
:101A6000E816F9060A071B0760F71F910F91FF9010
:101A7000EF900895019759F0FC01EE0FFF1FEE0F54
:101A8000FF1F32978FB7F8943197F1F78FBF089502
:101A9000789484B5826084BD84B5816084BD85B549
:101AA000826085BD85B5816085BDEEE6F0E0808110
:101AB00081608083E1E8F0E08081826080838081C2
:101AC00081608083E0E8F0E0808181608083E1EBE9
:101AD000F0E0808184608083E0EBF0E080818160D1
:101AE0008083EAE7F0E08081846080838081826087
:101AF0008083808181608083808180688083109270
:101B0000C1000895282F30E0C9018F559C4FFC017A
:101B1000949123573C4FF9018491882391F0E82F49
:101B2000F0E0EE0FFF1FE159FC4FA591B491662341
:101B300029F48C91909589238C9308958C91892B0D
:101B40008C930895482F50E0CA018B549C4FFC01A0
:101B50002491CA018F559C4FFC01949143575C4FCF
:101B6000FA0134913323D1F1222331F1233021F4CE
:101B7000809180008F7705C0243031F480918000FF
:101B80008F7D8093800018C0213019F484B58F7741
:101B900004C0223021F484B58F7D84BD0DC0263071
:101BA00021F48091B0008F7705C0273029F480910F
:101BB000B0008F7D8093B000E32FF0E0EE0FFF1FA9
:101BC000E758FC4FA591B491662329F48C91909528
:101BD00089238C9308958C91892B8C930895EE0F13
:101BE000FF1F0590F491E02D0994AA1BBB1B51E146
:101BF00007C0AA1FBB1FA617B70710F0A61BB70B7D
:101C0000881F991F5A95A9F780959095BC01CD0121
:061C10000895F894FFCFD7
:101C16003230300047455420002F200001010001DA
:0C1C2600500A545558100024C0A801FDBD
:00000001FF
