:100000000C9463000C948B000C948B000C948B006C
:100010000C948B000C948B000C948B000C948B0034
:100020000C948B000C948B000C948B000C948B0024
:100030000C948B000C948B000C948B000C948B0014
:100040000C94DC110C948B000C94A1130C948B0079
:100050000C948B000C948B000C948B000C948B00F4
:100060000C948B000C948B000000000024002700EF
:100070002A0000000000250028002B0000000000DE
:1000800023002600290004040404040404040202DA
:100090000202020203030303030301020408102007
:1000A0004080010204081020010204081020000012
:1000B0000007000201000003040600000000000029
:1000C00000009E0CEA1411241FBECFEFD4E0DEBF67
:1000D000CDBF12E0A0E0B1E0EEE8F3E302C005908E
:1000E0000D92A43EB107D9F714E0A4EEB2E001C02E
:1000F0001D92A037B107E1F710E0C6ECD0E004C0D4
:100100002297FE010E948A19C23CD107C9F70E94BA
:10011000D5110C94C5190C940000FB01DC018D91E4
:10012000019080190110D9F3990B0895FB01DC01AE
:1001300001900D920020E1F70895AEE0B0E0E3EA0F
:10014000F0E00C949C190D891E898F89988D97FF7A
:1001500002C080E090E801979E838D831A83098313
:1001600086E08C839E01255E3F4FCE010196698D0E
:100170007A8DA9010E94F2004D815E8157FD0AC06F
:100180002F813885421753070CF49A01020F131F71
:10019000F80110822E96E4E00C94B819AEE0B0E0BD
:1001A000E4EDF0E00C949C190D891E8986E08C83A7
:1001B0001A8309838FEF9FE79E838D839E01275EBD
:1001C0003F4FCE0101966F89788DA9010E94F20000
:1001D0002F813885020F131FF80110822E96E4E05C
:1001E0000C94B819ABE0B0E0E8EFF0E00C948E1995
:1001F0003C012B015A01FC0117821682838181FD8B
:1002000003C06FEF7FEFC6C19AE0892E1E010894EC
:10021000211C311CF3012381F20123FD859123FF71
:1002200081912F01882309F4B2C1853239F423FD6D
:10023000859123FF81912F01853229F490E0B3014C
:100240000E94E502E7CF982FFF24EE249924FFE1D6
:10025000FF15D0F09B3269F09C3228F4903259F0AF
:10026000933291F40EC09D3249F0903369F441E02D
:1002700024C052E0F52A84E0F82A28C098E0F92A40
:1002800025C0E0E1FE2A22C0F7FC29C0892F805357
:100290008A3070F4F6FE05C0989C902C1124980EBC
:1002A00015C0E89CE02C1124E80EF0E2FF2A0EC0F5
:1002B0009E3229F4F6FC6BC140E4F42A07C09C3658
:1002C00019F450E8F52A02C0983649F4F20123FDEA
:1002D000959123FF91912F01992309F0B8CF892F90
:1002E0008554833018F08052833038F444E050E075
:1002F000A40EB51E5FE359830FC0933631F09337D8
:1003000079F0933509F056C020C0F50180818983CA
:1003100042E050E0A40EB51E610101E010E012C001
:10032000F501C080D180F6FC03C06FEF7FEF02C003
:10033000692D70E042E050E0A40EB51EC6010E9497
:10034000DA028C015FE7F52214C0F501C080D1808C
:10035000F6FC03C06FEF7FEF02C0692D70E042E052
:1003600050E0A40EB51EC6010E94CF028C0150E8D9
:10037000F52AF3FE07C01AC080E290E0B3010E94A4
:10038000E502EA948E2D90E008171907A8F30EC035
:10039000F601F7FC8591F7FE81916F0190E0B301C2
:1003A0000E94E502E110EA94015010400115110588
:1003B00079F7EAC0943611F0993669F5F7FE08C06E
:1003C000F501208131814281538184E090E00AC0AF
:1003D000F501808191819C01442737FD4095542F80
:1003E00082E090E0A80EB91E9FE6F92257FF09C0EF
:1003F00050954095309521953F4F4F4F5F4FE0E826
:10040000FE2ACA01B901A1012AE030E00E941103CD
:10041000D82ED21840C0953729F41F2D1F7E2AE010
:1004200030E01DC01F2D197F9F3661F0903720F4FA
:10043000983509F0ACC00FC0903739F0983709F003
:10044000A6C004C028E030E00AC0106114FD1460AA
:1004500020E130E004C014FD166020E132E017FF17
:1004600008C0F501608171818281938144E050E090
:1004700008C0F50180819181BC0180E090E042E0FC
:1004800050E0A40EB51EA1010E941103D82ED2186F
:100490008FE7F82EF122F6FE0BC05EEFF522D9149D
:1004A00038F4F4FE07C0F2FC05C08FEEF82202C05B
:1004B0001D2D01C0192DF4FE0DC0FE01ED0DF11D25
:1004C0008081803319F499EEF92208C01F5FF2FE93
:1004D00005C003C08F2D867809F01F5F0F2DF3FC38
:1004E00014C0F0FE0FC01E1510F09D2C0BC09D2CEB
:1004F0009E0C911A1E2D06C080E290E0B3010E946E
:10050000E5021F5F1E15C0F304C01E1510F4E11AAA
:1005100001C0EE2404FF0FC080E390E0B3010E940D
:10052000E50202FF1DC001FD03C088E790E00EC098
:1005300088E590E00BC0802F867891F001FF02C023
:100540008BE201C080E2F7FC8DE290E0B3010E94F3
:10055000E50206C080E390E0B3010E94E5029A94B0
:10056000D914C0F3DA94F101ED0DF11D808190E012
:10057000B3010E94E502DD20A9F706C080E290E009
:10058000B3010E94E502EA94EE20C1F743CEF301E5
:1005900066817781CB012B96E2E10C94AA19FC01CC
:1005A0000590615070400110D8F7809590958E0F9E
:1005B0009F1F0895FC016150704001900110D8F711
:1005C000809590958E0F9F1F08950F931F93CF9343
:1005D000DF938C01EB018B8181FF1BC082FF0DC07B
:1005E0002E813F818C819D812817390764F4E88131
:1005F000F9810193F983E88306C0E885F985802FA6
:100600000995892B31F48E819F8101969F838E837A
:1006100002C00FEF1FEFC801DF91CF911F910F9123
:100620000895FA01AA27283051F1203181F1E89488
:100630006F936E7F6E5F7F4F8F4F9F4FAF4FB1E0D5
:100640003ED0B4E03CD0670F781F891F9A1FA11DD0
:10065000680F791F8A1F911DA11D6A0F711D811DD1
:10066000911DA11D20D009F468943F912AE0269F96
:1006700011243019305D3193DEF6CF010895462FF5
:100680004770405D4193B3E00FD0C9F7F6CF462FD6
:100690004F70405D4A3318F0495D31FD405241933F
:1006A00002D0A9F7EACFB4E0A695979587957795FC
:1006B0006795BA95C9F700976105710508959B0183
:1006C000AC010A2E06945795479537952795BA950C
:1006D000C9F7620F731F841F951FA01D0895AF9265
:1006E000CF92EF920F93FC01778366834483238339
:1006F0000283E182C082A5820F91EF90CF90AF90EC
:1007000008951F93FC01862F122F6083418322835B
:1007100061E00E94A412812F61E00E94A4121F9147
:100720000895FF920F931F93CF93DF938C01FC01E9
:10073000818160E00E94A412FF24C0E0D0E0F801B3
:1007400081810E94111390E00C2E02C0880F991F26
:100750000A94E2F7F82AF801828161E00E94C4124B
:1007600081E090E00E945C12F801828160E00E94CA
:10077000C4122196C830D10511F78F2DDF91CF918A
:100780001F910F91FF900895FF920F931F938C017B
:10079000F62EFC01818161E00E94A412F8018181A2
:1007A000628140E02F2D0E9460131F910F91FF90F6
:1007B0000895EF92FF920F931F938C01F62EE42E73
:1007C000FC01828160E00E94C412F801808161E036
:1007D0000E94C412FF0CF0E8FF2AC8016F2D0E948E
:1007E000C403C8016E2D0E94C403F801808160E03B
:1007F0000E94C4121F910F91FF90EF900895462F11
:1008000047954427479567E00E94D9030895FF92D2
:100810000F931F938C01F62EFC01828160E00E94F1
:10082000C412F801808161E00E94C412FF0CF1E85B
:10083000FF2AC8016F2D0E94C403C8010E949103C2
:10084000F82EF801808160E00E94C4128F2D1F9164
:100850000F91FF90089562E00E940704482F282F0F
:1008600030E087FF10C020723070E5E035952795A5
:10087000EA95E1F7C901880F991F820F931F282F6E
:10088000220F220F11C0C9018073907064E095950A
:1008900087956A95E1F79C0153E0220F331F5A9523
:1008A000E1F7880F991F280F4F70822F840F08954A
:1008B000EF92FF921F937C01162F60E00E940704C5
:1008C000482F4F77179511271795412BC70160E0E7
:1008D0000E94D9031F91FF90EF900895CF92DF926D
:1008E000EF92FF920F931F937C01C62ED42E022FFE
:1008F0000E940704E82F10E00F5F1F4F21E030E057
:1009000002C0220F331F0A95E2F721508D2D6AE0B5
:100910000E941819482F50E0F4E0440F551FFA9533
:10092000E1F78D2D0E941819492B422320952E2383
:10093000422BC7016C2D0E94D9031F910F91FF908C
:10094000EF90DF90CF900895462F65E022E00E945F
:100950006E040895462F64E024E00E946E0408951A
:10096000462F63E025E00E946E040895FF920F93E6
:100970001F938C01F62E62E040E00E94D903C8016B
:1009800062E04F2D25E00E946E041F910F91FF90B1
:100990000895462F61E026E00E946E040895462FD8
:1009A00060E026E00E946E04089527E00E946E0435
:1009B0000895AB01405D574066E00E94D50408955C
:1009C0008F929F92BF92CF92DF92EF92FF920F93FE
:1009D0001F93DF93CF93CDB7DEB728970FB6F89468
:1009E000DEBF0FBECDBF7C01E02F0983012F1A832C
:1009F000122F2B83D32E3C83C42E4D83B52E5E83C2
:100A00006F8378878F8098846E2F0E94CF04C701F0
:100A1000602F0E94C904C701612F0E94B604C7015C
:100A20006D2D0E94B004C7016C2D0E94AA04C7015D
:100A30006B2D0E94A404C701B4010E94D90428961A
:100A40000FB6F894DEBF0FBECDBFCF91DF911F91DF
:100A50000F91FF90EF90DF90CF90BF909F908F907D
:100A600008950F931F93042F0E94070410E00F5F57
:100A70001F4F21E030E002C0220F331F0A95E2F73A
:100A800021502823822F82958F7090E0AC01B3E033
:100A9000440F551FBA95E1F7880F991F840F2F70E7
:100AA000820F1F910F91089565E042E00E94310589
:100AB000089564E044E00E943105089563E045E054
:100AC0000E943105089560E046E00E9431050895D6
:100AD00047E00E943105089566E00E946805282FCE
:100AE00030E02053384FC901089561E00E94680545
:100AF0000895AF92BF92CF92DF92EF92FF920F9341
:100B00001F93DF93CF93CDB7DEB728970FB6F89436
:100B1000DEBF0FBECDBF8C010E946305A82EC801A9
:100B20000E947505B82EC8010E942B04C82EC8016A
:100B30000E945E05D82EC8010E945905E82EC80102
:100B40000E945405F82EC8010E946C058F83988777
:100B50009501A601B70128960FB6F894DEBF0FBE27
:100B6000CDBFCF91DF911F910F91FF90EF90DF905C
:100B7000CF90BF90AF900895F999FECF72BD61BD3F
:100B8000F89A80B50895F999FECF1FBA72BD61BD7C
:100B900040BD0FB6F894FA9AF99A0FBE0895DC0199
:100BA0001A966C931A97462F50E0CA018A579F4FA6
:100BB000FC0124911B962C931B9746565F4FFA011C
:100BC00084911C968C931C9730E0220F331FF901FF
:100BD000EE58FF4F859194911E969C938E931D978E
:100BE000F901E458FF4F8591949150969C938E9310
:100BF0001F97F901E859FF4F8591949152969C9364
:100C00008E9351978FEF18968C93189719961C9284
:100C1000199787E0FD01E80FF11D1082882311F07C
:100C20008150F8CF0895DC018FEF18968C931897B8
:100C300019961C92199787E0FD01E80FF11D1082AB
:100C4000882311F08150F8CF0895FC0140E030E096
:100C50005CE80EC0208190E0822F8327369580FDCE
:100C600035279F5F983011F02695F6CF4F5F31966C
:100C7000461780F3832F0895FF920F931F938C01E3
:100C8000DC015196ED91FC91529780811C969C91CC
:100C90001C97892B80831D96ED91FC911E97908166
:100CA0001C968C9180958923808381E090E00E943E
:100CB0005C12D8015196ED91FC91529790811C964F
:100CC0008C9180958923808385E090E00E945C125E
:100CD000D8011F96ED91FC9150972081FF2430E0C0
:100CE0001C968C9190E028233923232B11F0FF24AC
:100CF000F39482E390E00E945C128F2D1F910F917C
:100D0000FF900895EF92FF920F931F93CF93DF937D
:100D10007C0101E010E0C0E0D0E0C7010E943C0689
:100D20008111102B000F2196C830D105B1F7812F0A
:100D3000DF91CF911F910F91FF90EF900895EF9267
:100D4000FF920F931F937C01062FDC015196ED91CA
:100D5000FC91529780811C969C911C97892B8083D3
:100D60001D96ED91FC911E9790811C968C9180951B
:100D700089238083017010E0F801EA53FD4F8081E0
:100D800090E00E945C12D7011D96ED91FC911E9798
:100D900080811C969C91892B80830C531D4FF801F8
:100DA000808190E00E945C121F910F91FF90EF9064
:100DB0000895CF92DF92EF92FF920F931F93CF93FC
:100DC000DF938C01E42EFF24F394C0E0D0E0C62E24
:100DD000DD2460E08F2D90E08C219D21892B09F08E
:100DE00061E0C8010E949F06FF0C2196C830D10522
:100DF00081F7EE2051F4F801828560E00E94A41290
:100E0000F801828560E00E94C412DF91CF911F91AA
:100E10000F91FF90EF90DF90CF9008956CEC40E041
:100E20000E94D9060895EF92FF920F931F93CF93DC
:100E3000DF938C017B0165E540E00E94D906C0E0AC
:100E4000D0E0F701EC0FFD1FC801608140E00E9477
:100E5000D9062196C830D105A1F7DF91CF911F9116
:100E60000F91FF90EF9008951F93CF93DF93EC01C4
:100E70008A8560E00E94A4121DE7115010F410E072
:100E800028C082E090E00E945C128A850E941113C3
:100E9000892B99F38A8560E00E94C4128A8561E0FB
:100EA0000E94A41284EF91E00E945C128A8560E0A7
:100EB0000E94A41281E490E00E945C128A850E9444
:100EC000111310E0892B09F411E08AEE91E00E94E1
:100ED0005C12812FDF91CF911F9108958F929F9285
:100EE000AF92BF92DF92EF92FF920F931F93CF9337
:100EF000DF93EC015B018985882309F080C0CE0176
:100F00000E943407882309F47AC0CE0160EF40E0E4
:100F10000E94D906DD24DA94EE24E39400E010E088
:100F200021E0822E912CCE010E943C06F82ECE01AB
:100F30000E943C06282F502F569556955695C8016D
:100F400087709070B40102C0660F771F8A95E2F730
:100F5000462FFF2029F0222309F051C09F2D21C0E8
:100F6000222339F58885992787FD90950817190759
:100F700011F4D8860EC0081719076CF4262F30E03C
:100F8000FE01E50FF11D808190E028233923232BFA
:100F900019F091E003C0088790E0EE24D02E992349
:100FA00041F0FE01E50FF11D8081842B8083F92E35
:100FB00007C0FE01E50FF11D409580814823408365
:100FC000CE016F2D0E949F060F5F1F4F0034110549
:100FD00009F0A9CFEE2011F081E0898720E030E010
:100FE000F501E20FF31FDE01A20FB31F8C91808386
:100FF0002F5F3F4F2830310599F781E001C080E035
:10100000DF91CF911F910F91FF90EF90DF90BF90F4
:10101000AF909F908F900895FC0184ED98E0918BA4
:10102000808B75836483138210828FE190E09283BA
:1010300081830895FC01838108956F927F928F923E
:101040009F92AF92BF92CF92DF92EF92FF920F9357
:101050001F93CF93DF93FB01EA01998180E0288100
:1010600030E0282B392BE081E23231F0E83221F0F8
:10107000E03109F084C04BC04C814F3329F140343A
:1010800020F44F3109F07BC02FC04F3579F04F3736
:1010900009F075C0B901882777FD8095982F0E94C7
:1010A000E21720E030E040E85DE32EC0359527955B
:1010B000B901882777FD8095982F0E94E21720E0DC
:1010C00030E040E05EE320C03595279535952795C3
:1010D000B901882777FD8095982F0E94E21720E0BC
:1010E00030E040E85EE310C093E0359527959A958F
:1010F000E1F7B901882777FD8095982F0E94E217C4
:1011000020E030E040E05FE30E94961832C0EF80BC
:1011100035952795B901882777FD8095982F0E94EE
:10112000E21720E030E040E85EE30E94DE163B017B
:101130004C016E2D70E02E81621B7109882777FDAE
:101140008095982F0E94E2175B016C01FF2400E05C
:1011500010E0C801B7010E94E0179B01AC01C60175
:10116000B5010E9447179B01AC01C401B3010E9465
:10117000DF169B01AC01832F942F752F00C0262F03
:10118000382F492F572FB901CA01DF91CF911F91F5
:101190000F91FF90EF90DF90CF90BF90AF909F9016
:1011A0008F907F906F90089508950F931F938C01F7
:1011B000FC01848195810E943407F8018481958126
:1011C0000E940E07F8018481958164E440810E94A9
:1011D000D906F801818192818F33910551F08F35C5
:1011E000910561F04F9779F46EE570E080E090E052
:1011F0000EC06CEB70E080E090E009C067E771E042
:1012000080E090E004C06EEE72E080E090E00E942A
:1012100032121F910F910895EF92FF920F931F9337
:101220008C017B01FC01848195810E943407F801C7
:1012300084819581B7010E941307F801848195810B
:1012400064EB40E00E94D906F801848195810E94F8
:101250003C06F82EF801848195810E94340780E0D5
:10126000FF2009F481E01F910F91FF90EF90089506
:10127000CF92DF92EF92FF920F931F938C016B013D
:101280007A01FC01848195810E943407F8018481F0
:101290009581B6010E941307F801848195816EEB58
:1012A00040E00E94D906F801848195810E9482065F
:1012B000F7018083F801848195810E948206F701FD
:1012C0008183F801848195810E948206F7018283DF
:1012D000F801848195810E948206F7018383F801D9
:1012E000848195810E948206F7018483F8018481BC
:1012F00095810E948206F7018583F801848195819A
:101300000E948206F7018683F801848195810E94FC
:101310008206F7018783F801848195810E94820605
:10132000F7018087F801848195810E9434071F911D
:101330000F91FF90EF90DF90CF9008950F931F9340
:101340008A010E943809C80168E00E94250620E051
:10135000F8019085891709F421E0822F1F910F91E0
:101360000895CF92DF92EF92FF920F931F93DF9336
:10137000CF93CDB7DEB729970FB6F894DEBF0FBE77
:10138000CDBF8C017B016E010894C11CD11CA6014C
:101390000E949E09882329F460E070E08EEF92ECB1
:1013A00005C0C801B701A6010E941D0829960FB605
:1013B000F894DEBF0FBECDBFCF91DF911F910F918B
:1013C000FF90EF90DF90CF9008950F931F938B01C4
:1013D000CB0167E00E94250620E0F801978189177C
:1013E00009F421E0822F1F910F910895EF92FF924F
:1013F0000F931F93CF93DF93EC017B01042F8C811C
:101400009D810E94130610E007C0CE01B7010E9423
:10141000E5098823A9F00AC08C819D81B7010E944B
:101420006E07882329F0101759F4EFCF81E001C02F
:1014300080E0DF91CF911F910F91FF90EF90089581
:101440001F5F0117A8F3E8CFEF92FF920F931F934E
:10145000DF93CF93CDB7DEB728970FB6F894DEBFF2
:101460000FBECDBF7C01462F8E010F5F1F4FB8010D
:101470000E94F609C701B8010E94B10928960FB66B
:10148000F894DEBF0FBECDBFCF91DF911F910F91BA
:10149000FF90EF9008959F92AF92BF92CF92DF920C
:1014A000EF92FF920F931F93DF93CF93CDB7DEB7E9
:1014B00061970FB6F894DEBF0FBECDBF8C01FC0163
:1014C000848195810E9413067E010894E11CF11C21
:1014D000E9E0AE2EB12CAC0EBD1E7FE7C72ED12C9D
:1014E000992493942DC0C801B7010E94E50988236F
:1014F00039F1F8018081882341F4C801B7010E94C5
:101500000C09882311F0F8019082C801B701A501E8
:101510000E9438098981803121F4F801D282C18288
:101520000BC08D85282F30E0F801818192818217D0
:10153000930714F432832183F80183818F5F8383BF
:10154000F80184819581B7010E946E07882359F6BE
:1015500061960FB6F894DEBF0FBECDBFCF91DF917D
:101560001F910F91FF90EF90DF90CF90BF90AF90C1
:101570009F9008950F931F938C01FC01848160E07C
:101580000E94C41281E090E00E945C12F801848104
:1015900061E00E94C41281E090E00E945C12F801B8
:1015A000848160E00E94C41284E690E00E945C1294
:1015B0001F910F910895CF92DF92EF92FF920F93B8
:1015C0001F93CF93DF93D82EC92E282F392FC9010F
:1015D0008C01C0E0D0E0E62EFF24F801858161E0B7
:1015E0000E94A412B7010C2E02C0759567950A944B
:1015F000E2F76170F80185810E94C41221960F5FA5
:101600001F4FC830D10549F78D2D9C2D0E94BA0A75
:10161000DF91CF911F910F91FF90EF90DF90CF90CE
:101620000895CF92DF92EF92FF920F931F93CF9383
:10163000DF93D82EC92E282F392FC9018C01C0E085
:10164000D0E0E62EFF24F801858161E00E94A4121B
:10165000B7010C2E02C0759567950A94E2F7617088
:10166000F80185810E94C41221960F5F1F4FC4307C
:10167000D10549F78D2D9C2D0E94BA0ADF91CF919B
:101680001F910F91FF90EF90DF90CF9008951F93DF
:10169000CF93DF93EC01162F8A81642F0E94C4122E
:1016A0008B8160E00E94C4128D8584FF05C0CE014D
:1016B000612F0E94DB0A0EC0612F70E084E07595F7
:1016C00067958A95E1F7CE010E94110BCE01612F3B
:1016D0000E94110BDF91CF911F91089541E00E946C
:1016E000470B089540E00E94470B0895FC01668572
:1016F000862F846086876C60CF010E94720B0895EC
:10170000DF93CF93CDB7DEB728970FB6F894DEBF3F
:101710000FBECDBF9C01FE013196A2EDB2E088E084
:101720000D9001928150E1F7F9018189841710F43D
:10173000482F4150E42FF0E0EE0FFF1FEC0FFD1F8C
:101740008181680F6068C9010E94720B28960FB6EC
:10175000F894DEBF0FBECDBFCF91DF91089561E059
:101760000E94720B80ED97E00E945C120895CF9367
:10177000DF93EC01423018F08D8588608D87498BAE
:101780001A8A222329F0413019F48D8584608D87CF
:1017900080E593EC0E945C128A8160E00E94C41292
:1017A0008C8160E00E94C4128B8160E00E94C412B0
:1017B0006D8564FD1DC0CE0163E00E94110B84E9BC
:1017C00091E10E945C12CE0163E00E94110B84E95A
:1017D00091E10E945C12CE0163E00E94110B86E948
:1017E00090E00E945C12CE0162E00E94110B16C0D4
:1017F0006062CE010E94720B84E991E10E945C124A
:101800006D856062CE010E94720B86E990E00E94B5
:101810005C126D856062CE010E94720B6D85606204
:10182000CE010E94720B84E08E87CE010E94760B5F
:10183000CE010E94AF0B82E08F87CE0166E00E944E
:10184000720BDF91CF9108956F927F928F92AF923A
:10185000CF92EF920F931F93DF93CF93CDB7DEB765
:101860003C01162F842FF301428323830483E582F6
:10187000C682A78280869D8591879E8592879F8557
:1018800093879889948761E00E94A412F301838171
:1018900061E00E94A412F301848161E00E94A4121D
:1018A000112319F0F301158603C080E1F301858748
:1018B000C30160E141E020E00E94B70BCF91DF91CE
:1018C0001F910F91EF90CF90AF908F907F906F907E
:1018D00008958F92AF92CF92EF920F931F93CF9371
:1018E000DF93DC01362F542F722F102FAE2C8C2C4F
:1018F0008CEC92E011969C938E9300D000D0EDB7C3
:10190000FEB73196CDB7DEB71982118212821382EB
:10191000CD0161E0432F2FEF052FE72EC12E0E944E
:10192000240C0F900F900F900F90DF91CF911F918B
:101930000F91EF90CF90AF908F900895CF92EF924C
:101940000F931F9385EE92E06DE04CE02BE00E9438
:10195000810308EE12E0C80169E00E94CF058BEF19
:1019600092E0B8010E940C088DE093E067E048E047
:1019700025E004E05EE0E52E33E0C32E0E94690C12
:101980001F910F91EF90CF9008954F925F926F92B9
:101990007F928F929F92AF92BF92CF92DF92EF92FF
:1019A000FF920F931F93DF93CF93CDB7DEB760976E
:1019B0000FB6F894DEBF0FBECDBF82E10E941113B7
:1019C000019719F4F8E09F2E01C0992481E10E944B
:1019D0001113019711F424E0920E80E10E9411137B
:1019E000019711F432E0930E8FE00E9411130197DA
:1019F00011F4939402C0992061F18DB79EB70897B6
:101A00000FB6F8949EBF0FBE8DBFEDB7FEB73196EF
:101A100002E413E0ADB7BEB712961C930E93119774
:101A200084E690E0938382838AE091E095838483C7
:101A3000968217820E949D00EDB7FEB738960FB6CA
:101A4000F894FEBF0FBEEDBF8DE594E0B8010E9493
:101A50007A158091AE038230B1F1823048F0843043
:101A600009F466C08430F0F1853009F0ABC083C062
:101A7000F1E09F1669F4882329F49092AE03109246
:101A8000B002A0C01092AE038FEF8093B5029AC04F
:101A900022E0921639F48091B002882309F492C0B2
:101AA000815006C034E0931631F48091B0028F5F0C
:101AB0008093B00287C098E0991609F083C08093A4
:101AC000AF0382E07DC0A1E09A1611F483E078C0F4
:101AD000B4E09B1611F48CE273C0E8E09E1609F0A6
:101AE00071C06CC0F2E09F1659F485EE92E00E943E
:101AF0005405813011F467E010C0682F61500DC0AB
:101B000024E0921679F485EE92E00E945405873025
:101B100011F461E002C0682F6F5F85EE92E00E94D1
:101B2000A40450C038E0931609F04CC084E048C0CB
:101B300082E0981641F485EE92E00E942B0485EE37
:101B400092E060E010C094E0991681F485EE92E096
:101B50000E942B04682F90E0479714F060E001C0CA
:101B60006F5F85EE92E00E94B6042CC0A8E09A1642
:101B700049F585E025C0B2E09B1659F485EE92E068
:101B80000E947505882311F46BE310C0682F615023
:101B90000DC0E4E09E1679F485EE92E00E94750592
:101BA0008B3311F460E002C0682F6F5F85EE92E026
:101BB0000E94C90407C0F8E09F1621F48091AF038A
:101BC0008093AE038091AE038230C1F0833028F45D
:101BD000882351F0813039F50CC08430C9F084304D
:101BE00090F0853001F519C081E393E060E271E087
:101BF00018C081E393E061E371E013C081E393E0F7
:101C000062E471E00EC081E393E063E571E009C036
:101C100081E393E064E671E004C081E393E065E76B
:101C200071E00E94960085EE92E00E947905298776
:101C30003A874B875C876D877E878F87988BDE011D
:101C40001196FE01399688E001900D928150E1F7DE
:101C50008E802091B003F22EFA948B81482E552469
:101C60008A81682E77248CE390E0489EA001499EEB
:101C7000500D589E500D1124460D571DE2EBF3E018
:101C800060E070E0A22FB0E03CE30EC08081839F53
:101C9000C00111242181820F911D339648175907E5
:101CA00034F0F62E6F5F7F4F6A177B077CF38091CD
:101CB000B502F81609F444C08F2D90E0AC01440F32
:101CC000551F480F591F4E545C4FDA0112962C9144
:101CD0002093B002EDB7FEB73E970FB6F894FEBF63
:101CE0000FBEEDBF319602E413E0ADB7BEB712965A
:101CF0001C930E93119784E690E09383828386E889
:101D000091E09583848377836683DA018C91808761
:101D1000118611968C9182871386248715860E94DE
:101D20009D00EDB7FEB73E960FB6F894FEBF0FBE0E
:101D3000EDBF8DE594E0B8010E947A15F092B502EE
:101D40000E9424122091A6033091A7034091A8037A
:101D50005091A903621B730B840B950B6958734157
:101D60008040904088F46091B1027091B2028091FD
:101D7000B3029091B40220E030E048E453EC0E94BA
:101D8000431788230CF078C08DE594E067EB71E091
:101D90000E947A158BEF92E00E94D50804C08BEF69
:101DA00092E00E944B0A8BEF92E00E941A0888236F
:101DB000B1F380E090E0A0E0B0E08093B1029093B6
:101DC000B202A093B302B093B40200E010E015C0D9
:101DD0008BEF92E0602F0E94240A9B01AC01C701A7
:101DE000B6010E94DF166093B1027093B202809335
:101DF000B3029093B4020F5F1F4F8BEF92E00E94EB
:101E00001A0890E0C090B102D090B202E090B30204
:101E1000F090B40208171907DCF28BEF92E00E94F1
:101E20001A0890E0AA2797FDA095BA2FBC01CD0112
:101E30000E94E2179B01AC01C701B6010E9447173F
:101E40009B01AC01CB01DA018093B1029093B20205
:101E5000A093B302B093B4028DE594E0A901BD0153
:101E60000E94D3160E9424126093A6037093A703C6
:101E70008093A8039093A903A090B102B090B202FE
:101E8000C090B302D090B4026091B00270E0882795
:101E900077FD8095982F0E94E2177B018C01C60187
:101EA000B501A80197010E944317882334F5C801A2
:101EB000B701A60195010E94DE1620E030E040E85F
:101EC0005EE30E9492181816C4F48091B103813029
:101ED00081F08DE594E06CEC71E00E947A150E942F
:101EE00024126093AA037093AB038093AC03909386
:101EF000AD0381E08093B1035BC00E942412209166
:101F0000AA033091AB034091AC035091AD03621B27
:101F1000730B840B950B615E73498440904008F409
:101F200047C08091B103882309F440C08DE594E057
:101F30006AED71E00E947A150E942412ADB7BEB717
:101F40001A970FB6F894BEBF0FBEADBFEDB7FEB780
:101F5000319602E413E012961C930E93119724E637
:101F600030E03383228329EE31E0358324832091CE
:101F7000AA033091AB034091AC035091AD03621BB7
:101F8000730B840B950B66837783808791870E9400
:101F90009D00EDB7FEB73A960FB6F894FEBF0FBEA0
:101FA000EDBF8DE594E0B8010E947A151092B1035F
:101FB0008AE06091B1030E94C4122DB73EB72E5043
:101FC00030400FB6F8943EBF0FBE2DBF0DB71EB701
:101FD0000F5F1F4F70E2E72E73E0F72EADB7BEB76D
:101FE0001296FC92EE9211978FEF91E0F801938395
:101FF0008283E82DF0E0EE0FFF1FEC54FD4F80814F
:102000009181D80115969C938E93149717965C92A4
:102010004E92169719967C926E9218976091B10223
:102020007091B2028091B3029091B4020E94AF17F6
:10203000F801738762878091B002848715860E94B9
:10204000CE002DB73EB7225F3F4F0FB6F8943EBF8C
:102050000FBE2DBFC7016EE872E00E948D00009791
:1020600049F481E393E06FE972E00E948D000097EC
:1020700009F448C08DE594E068E172E00E947A15A9
:102080008DE594E060E273E00E947A158DE594E0BE
:102090006CE172E00E947A158DE093E060E040E030
:1020A0000E94800B8DE093E060E273E00E945B157C
:1020B0008EE892E060E273E00E9496008DE594E085
:1020C00068E172E00E947A158DE594E061E373E0C7
:1020D0000E947A158DE594E06CE172E00E947A1519
:1020E0008DE093E060E041E00E94800B8DE093E0A2
:1020F00061E373E00E945B158FE992E061E373E0B6
:102100000E949600992031F064E670E080E090E053
:102110000E94321260960FB6F894DEBF0FBECDBF9C
:10212000CF91DF911F910F91FF90EF90DF90CF90B3
:10213000BF90AF909F908F907F906F905F904F90E7
:102140000895AF92CF92EF920F931F93DF93CF93A7
:10215000CDB7DEB728970FB6F894DEBF0FBECDBF60
:102160008DE594E040E855E260E070E00E94DE1307
:102170008BEF92E00E944B0A8DE093E060E142E039
:1021800020E00E94B70B8AE061E00E94A4128FE079
:1021900060E00E94A41280E160E00E94A41281E14C
:1021A00060E00E94A41282E160E00E94A41285EE29
:1021B00092E060E20E940704833A51F185EE92E0DA
:1021C00060E00E94FF0385EE92E060E00E94580408
:1021D000CE0101966AED77E046E023E106E11AE0E0
:1021E000E12ECC24B7E0AB2E0E946F0385EE92E087
:1021F00009811A812B813C814D815E816F817885B7
:102200000E94E00485EE92E060E243EA0E94D90376
:1022100085EE92E060E20E940704833A61F48DE566
:1022200094E06EE172E00E947A1585EE92E069E03A
:1022300049EA0E94D90384EE92E060E070E00E94D7
:10224000BC05833A09F44FC08DE594E063E372E086
:102250000E947A1584EE92E060E070E043EA0E940A
:10226000C30584EE92E061E070E044E00E94C305A3
:1022700084E08093B00386E08093B2039DE2909364
:10228000B30324E12093B40388E08093B5039093D3
:10229000B6031092B70381E18093B8031092B9039B
:1022A0002093BA0385E18093BB039093BC038CE039
:1022B0008093BD0310E003E00BC0FB01EE54FC4F24
:1022C00084EE92E06E5F7F4F40810E94C3051F5FE6
:1022D000612F70E08091B003809FC00111246817C6
:1022E000790758F328C08DE594E061E572E00E941B
:1022F0007A1584EE92E061E070E00E94BC05809364
:10230000B003EE24A3E0CA2E0CC0B8016E5F7F4F6D
:1023100084EE92E00E94BC050E541C4FD8018C93B1
:10232000E3940E2D10E08091B0038C9DC001112428
:102330000817190750F3EDB7FEB738970FB6F894A2
:10234000FEBF0FBEEDBF319602E413E0ADB7BEB7DE
:1023500012961C930E93119784E690E093838283E8
:1023600084E692E0958384838091B003868317820C
:102370000E949D00EDB7FEB738960FB6F894FEBFE9
:102380000FBEEDBF8DE594E0B8010E947A15289646
:102390000FB6F894DEBF0FBECDBFCF91DF911F9176
:1023A0000F91EF90CF90AF9008950E946A120E9413
:1023B000A1100E94C50CFDCF1F920F920FB60F9275
:1023C00011242F933F938F939F93AF93BF9380914B
:1023D000D4039091D503A091D603B091D703309147
:1023E000D8030196A11DB11D232F2D5F2D3720F09D
:1023F0002D570196A11DB11D2093D8038093D403BE
:102400009093D503A093D603B093D7038091D003C4
:102410009091D103A091D203B091D3030196A11D55
:10242000B11D8093D0039093D103A093D203B093B6
:10243000D303BF91AF919F918F913F912F910F90B7
:102440000FBE0F901F9018958FB7F8942091D4036A
:102450003091D5034091D6035091D7038FBFB90176
:10246000CA010895EF92FF920F931F937B018C0195
:102470008FB7F8944091D4035091D5036091D6035F
:102480007091D7038FBF2FB7F8948091D4039091A8
:10249000D503A091D603B091D7032FBF841B950B12
:1024A000A60BB70BE816F9060A071B0760F71F9182
:1024B0000F91FF90EF900895019759F0FC01EE0FF6
:1024C000FF1FEE0FFF1F32978FB7F8943197F1F788
:1024D0008FBF0895789484B5826084BD84B581608F
:1024E00084BD85B5826085BD85B5816085BDEEE61C
:1024F000F0E0808181608083E1E8F0E080818260AB
:102500008083808181608083E0E8F0E08081816069
:102510008083E1EBF0E0808184608083E0EBF0E099
:10252000808181608083EAE7F0E08081846080833D
:1025300080818260808380818160808380818068E7
:1025400080831092C1000895282F30E0C90186567B
:102550009F4FFC0194912A573F4FF90184918823A2
:1025600091F0E82FF0E0EE0FFF1FE859FF4FA59123
:10257000B491662329F48C91909589238C930895C6
:102580008C91892B8C930895482F50E0CA01825575
:102590009F4FFC012491CA0186569F4FFC019491E4
:1025A0004A575F4FFA0134913323D1F1222331F19D
:1025B000233021F4809180008F7705C0243031F4DE
:1025C000809180008F7D8093800018C0213019F4A5
:1025D00084B58F7704C0223021F484B58F7D84BD0B
:1025E0000DC0263021F48091B0008F7705C02730D0
:1025F00029F48091B0008F7D8093B000E32FF0E04C
:10260000EE0FFF1FEE58FF4FA591B491662329F4FA
:102610008C91909589238C9308958C91892B8C9320
:102620000895682F70E0CB0182559F4FFC012491E3
:10263000CB0186569F4FFC0144916A577F4FFB01A7
:102640009491992319F420E030E038C0222331F12D
:10265000233021F4809180008F7705C0243031F43D
:10266000809180008F7D8093800018C0213019F404
:1026700084B58F7704C0223021F484B58F7D84BD6A
:102680000DC0263021F48091B0008F7705C027302F
:1026900029F48091B0008F7D8093B000892F90E065
:1026A000880F991F84589F4FFC01A591B4918C917C
:1026B00020E030E0842311F021E030E0C9010895EA
:1026C000BF92CF92DF92EF92FF920F931F93CF931F
:1026D000DF93E82EF62EB42EC0E0D0E0022F10E0FB
:1026E00087E0C82ED12CBB2041F4B8010C2E02C0CB
:1026F000759567950A94E2F70AC0B6016C1B7D0BCD
:10270000C80102C0959587956A95E2F7BC01617092
:102710008E2D0E94C4128F2D61E00E94C4128F2D55
:1027200060E00E94C4122196C830D105E1F6DF9125
:10273000CF911F910F91FF90EF90DF90CF90BF90BE
:1027400008951F920F920FB60F9211242F933F936B
:102750004F935F936F937F938F939F93AF93BF93A9
:10276000EF93FF934091C600E0915904F0915A0411
:10277000CF01019660E870E00E9424199C018091CD
:102780005B0490915C042817390739F0E752FC4F3D
:10279000408330935A0420935904FF91EF91BF91E5
:1027A000AF919F918F917F916F915F914F913F91E9
:1027B0002F910F900FBE0F901F9018955F926F9200
:1027C0007F928F929F92AF92BF92CF92DF92EF92C1
:1027D000FF920F931F93CF93DF93EC013A014B01CC
:1027E000413482E458078FE0680780E078070CF0F6
:1027F0007FC060E874E88EE190E0A40193010E943C
:1028000059192150304040405040CA01B90122E0DE
:1028100030E040E050E00E94591959016A01A601D8
:102820009501209530954095509594E0220F331FE7
:10283000441F551F9A95D1F760E074E284EF90E051
:102840000E945919CA01B9012FEF30E040E050E071
:102850000E94F918A40193010E945919C9018150DD
:102860009F4F181619061CF4522E5A9403C0552473
:102870005394521A60E079E08DE390E0A401930153
:102880000E9459192150304040405040CA01B901BE
:1028900022E030E040E050E00E9459192095309548
:1028A0004095509583E0220F331F441F551F8A9592
:1028B000D1F760E074E284EF90E00E945919CA01F8
:1028C000B9012FEF30E040E050E00E94F918A40178
:1028D00093010E945919C90181509F4F181619067A
:1028E0001CF4822F815002C081E0821B851500F507
:1028F000E885F98581E090E00A8802C0880F991F79
:102900000A94E2F7808360E079E08DE390E0A4012F
:1029100093010E9459192150304040405040CA0153
:10292000B90122E030E040E050E00E94591904C0B3
:10293000E885F98510829501EC81FD813083EE8177
:10294000FF812083EA85FB85208141E050E0CA01B8
:102950000E8402C0880F991F0A94E2F7282B208367
:10296000EA85FB852081CA010F8402C0880F991F68
:102970000A94E2F7282B2083EA85FB85808108886A
:1029800002C0440F551F0A94E2F7842B8083DF9125
:10299000CF911F910F91FF90EF90DF90CF90BF905C
:1029A000AF909F908F907F906F905F900895FC0103
:1029B000A085B18521898C9190E0022E02C0959569
:1029C00087950A94E2F780FFF6CF0484F585E02D21
:1029D000608308958EED92E090935E0480935D0491
:1029E00089ED93E09093600480935F0485EC90E020
:1029F000909362048093610484EC90E0909364046B
:102A00008093630480EC90E0909366048093650467
:102A100081EC90E0909368048093670486EC90E0EA
:102A200090936A048093690484E080936B0483E04C
:102A300080936C0487E080936D0485E080936E043E
:102A400081E080936F0408950F931F93CF93DF93DA
:102A50008C01EB0109C02196D801ED91FC91019008
:102A6000F081E02DC801099568816623A1F7DF9107
:102A7000CF911F910F910895EF92FF920F931F93A3
:102A8000CF93DF938C017B01EA010CC0D7016D91DC
:102A90007D01D801ED91FC910190F081E02DC801FC
:102AA00009952197209791F7DF91CF911F910F9171
:102AB000FF90EF900895DC01ED91FC910280F3818D
:102AC000E02D099508950F931F938C01DC01ED9182
:102AD000FC910190F081E02D6DE00995D801ED9118
:102AE000FC910190F081E02DC8016AE009951F91E9
:102AF0000F9108950F931F938C010E945B15C801DD
:102B00000E9463151F910F9108952F923F924F924B
:102B10005F926F927F928F929F92AF92BF92CF926D
:102B2000DF92EF92FF920F931F93DF93CF93CDB776
:102B3000DEB7A0970FB6F894DEBF0FBECDBF1C0165
:102B40006A017B01411551056105710549F4DC01FC
:102B5000ED91FC910190F081E02D60E3099554C066
:102B6000882499245401422E55246624772401E0B8
:102B700010E00C0F1D1F080D191DC701B601A301A0
:102B800092010E943719F80160830894811C911CFE
:102B9000A11CB11CC701B601A30192010E94371903
:102BA000C901DA016C017D01C114D104E104F10411
:102BB000F1F681E0E82EF12CEC0EFD1EE80CF91C7C
:102BC0003E010894611C711CD501C4010197A10943
:102BD000B1096C01C818D90814C0F601EE0DFF1D2B
:102BE00060816A3010F4605D01C0695CD101ED91D3
:102BF000FC910190F081E02DC10109950894E10854
:102C0000F1086E147F0449F7A0960FB6F894DEBF62
:102C10000FBECDBFCF91DF911F910F91FF90EF902D
:102C2000DF90CF90BF90AF909F908F907F906F90EC
:102C30005F904F903F902F9008952AE00E94851555
:102C40000895EF92FF920F931F93CF93DF93EC01C0
:102C50007A018B0177FF0FC0E881F9810190F08143
:102C6000E02D6DE2099510950095F094E094E11C3B
:102C7000F11C011D111DCE01B801A7012AE00E941F
:102C80008515DF91CF911F910F91FF90EF900895DF
:102C90009F92AF92BF92CF92DF92EF92FF920F93EB
:102CA0001F93CF93DF93EC017A018B01922ECB011E
:102CB000BA0120E030E040E050E00E944317882352
:102CC00064F4E881F9810190F081E02DCE016DE29C
:102CD000099517FB109517F9109520E030E040E0BA
:102CE0005FE3AA240BC0CA01B90120E030E040E252
:102CF00051E40E9447179B01AC01A394A91498F3D7
:102D0000C801B7010E94DF165B016C010E94B41775
:102D10007B018C01CE01B801A7010E941D169920EC
:102D200029F0CE016CE872E00E945B15C801B70182
:102D30000E94E0179B01AC01C601B5010E94DE169E
:102D400020C020E030E040E251E40E9496187B0170
:102D50008C010E94AF175B016C01CC24B7FCC094BE
:102D6000DC2CCE01B601A5010E942116C601B501D9
:102D70000E94E2179B01AC01C801B7010E94DE1658
:102D80009A949920F1F6DF91CF911F910F91FF90C6
:102D9000EF90DF90CF90BF90AF909F90089522E08A
:102DA0000E94481608950F931F938C010E94CF161E
:102DB000C8010E9463151F910F9108955058BB27B9
:102DC000AA270ED075C166D130F06BD120F031F456
:102DD0009F3F11F41EF45BC10EF4E095E7FB51C177
:102DE000E92F77D180F3BA17620773078407950735
:102DF00018F071F49EF58FC10EF4E0950B2EBA2FEA
:102E0000A02D0B01B90190010C01CA01A0011124F0
:102E1000FF27591B99F0593F50F4503E68F11A169C
:102E2000F040A22F232F342F4427585FF3CF46952D
:102E300037952795A795F0405395C9F77EF41F164F
:102E4000BA0B620B730B840BBAF09150A1F0FF0F19
:102E5000BB1F661F771F881FC2F70EC0BA0F621F05
:102E6000731F841F48F4879577956795B795F795F5
:102E70009E3F08F0B3CF9395880F08F09927EE0F87
:102E8000979587950895D9D008F481E008950CD0DE
:102E90000FC107D140F0FED030F021F45F3F19F0B0
:102EA000F0C0511139C1F3C014D198F39923C9F37B
:102EB0005523B1F3951B550BBB27AA276217730740
:102EC000840738F09F5F5F4F220F331F441FAA1FF4
:102ED000A9F333D00E2E3AF0E0E830D091505040B4
:102EE000E695001CCAF729D0FE2F27D0660F771F62
:102EF000881FBB1F261737074807AB07B0E809F044
:102F0000BB0B802DBF01FF2793585F4F2AF09E3FD8
:102F1000510568F0B6C000C15F3FECF3983EDCF3AA
:102F2000869577956795B795F7959F5FC9F7880F51
:102F3000911D9695879597F90895E1E0660F771FA3
:102F4000881FBB1F621773078407BA0720F0621B34
:102F5000730B840BBA0BEE1F88F7E095089504D02D
:102F60006894B111D9C00895BCD088F09F5790F0F3
:102F7000B92F9927B751A0F0D1F0660F771F881F9E
:102F8000991F1AF0BA95C9F712C0B13081F0C3D0B9
:102F9000B1E00895C0C0672F782F8827B85F39F057
:102FA000B93FCCF3869577956795B395D9F73EF4FD
:102FB00090958095709561957F4F8F4F9F4F0895A5
:102FC000E89409C097FB3EF49095809570956195C3
:102FD0007F4F8F4F9F4F9923A9F0F92F96E9BB2779
:102FE0009395F695879577956795B795F111F8CFF5
:102FF000FAF4BB0F11F460FF1BC06F5F7F4F8F4F60
:103000009F4F16C0882311F096E911C0772321F055
:103010009EE8872F762F05C0662371F096E8862FED
:1030200070E060E02AF09A95660F771F881FDAF744
:10303000880F9695879597F90895990F0008550F71
:10304000AA0BE0E8FEEF16161706E807F907C0F02E
:1030500012161306E407F50798F0621B730B840B36
:10306000950B39F40A2661F0232B242B252B21F410
:1030700008950A2609F4A140A6958FEF811D811DB0
:10308000089597F99F6780E870E060E008959FEFEA
:1030900080EC089500240A941616170618060906EF
:1030A000089500240A9412161306140605060895BE
:1030B000092E0394000C11F4882352F0BB0F40F446
:1030C000BF2B11F460FF04C06F5F7F4F8F4F9F4F86
:1030D000089557FD9058440F551F59F05F3F71F008
:1030E0004795880F97FB991F61F09F3F79F087956F
:1030F0000895121613061406551FF2CF4695F1DFF8
:1031000008C0161617061806991FF1CF8695710587
:10311000610508940895E894BB2766277727CB01BB
:1031200097F908958ADF08F48FEF08950BD0C0CF88
:10313000B1DF28F0B6DF18F0952309F0A2CFA7CFB2
:103140001124EACFC6DFA0F3959FD1F3950F50E08D
:10315000551F629FF001729FBB27F00DB11D639F49
:10316000AA27F00DB11DAA1F649F6627B00DA11DEF
:10317000661F829F2227B00DA11D621F739FB00D95
:10318000A11D621F839FA00D611D221F749F332705
:10319000A00D611D231F849F600D211D822F762F9E
:1031A0006A2F11249F5750408AF0E1F088234AF09B
:1031B000EE0FFF1FBB1F661F771F881F91505040E7
:1031C000A9F79E3F510570F05CCFA6CF5F3FECF3AF
:1031D000983EDCF3869577956795B795F795E795D3
:1031E0009F5FC1F7FE2B880F911D9695879597F9E4
:1031F0000895629FD001739FF001829FE00DF11D41
:10320000649FE00DF11D929FF00D839FF00D749F60
:10321000F00D659FF00D9927729FB00DE11DF91F0C
:10322000639FB00DE11DF91FBD01CF011124089569
:10323000991B79E004C0991F961708F0961B881F08
:103240007A95C9F78095089597FB092E07260AD02D
:1032500077FD04D049D006D000201AF4709561950E
:103260007F4F0895F6F7909581959F4F0895A1E2BD
:103270001A2EAA1BBB1BFD010DC0AA1FBB1FEE1FF0
:10328000FF1FA217B307E407F50720F0A21BB30B3B
:10329000E40BF50B661F771F881F991F1A9469F7B7
:1032A00060957095809590959B01AC01BD01CF0113
:1032B000089597FB092E05260ED057FD04D0D7DFC1
:1032C0000AD0001C38F450954095309521953F4F19
:1032D0004F4F5F4F0895F6F79095809570956195E3
:1032E0007F4F8F4F9F4F0895AA1BBB1B51E107C013
:1032F000AA1FBB1FA617B70710F0A61BB70B881F86
:10330000991F5A95A9F780959095BC01CD01089514
:10331000EE0FFF1F0590F491E02D09942F923F923C
:103320004F925F926F927F928F929F92AF92BF92D5
:10333000CF92DF92EF92FF920F931F93CF93DF9381
:10334000CDB7DEB7CA1BDB0B0FB6F894DEBF0FBEDE
:10335000CDBF09942A88398848885F846E847D842B
:103360008C849B84AA84B984C884DF80EE80FD802D
:103370000C811B81AA81B981CE0FD11D0FB6F894A3
:0E338000DEBF0FBECDBFED010895F894FFCF64
:10338E0057726974696E673A20002A2A2042757452
:10339E00746F6E206576656E74733A2025640A002C
:1033AE004F666620202D2020202B20202053657470
:1033BE0000204F6E20202D2020202B202020536512
:1033CE00740054696D652020202050726F67202094
:1033DE004F4B0044617920202D2020202B202020CF
:1033EE00204F4B00486F7572202D2020202B20205F
:1033FE0020204F4B004D696E73202D2020202B2056
:10340E002020204F4B002A2A2050726F6772616D68
:10341E00202564206D6174636865732028256420FF
:10342E00767320256429202D2D20736574706F69A5
:10343E006E742025640A002A2A2052656164207465
:10344E00656D70657261747572650A002A2A20486E
:10345E006561746572206F6E0A002A2A20486561C4
:10346E00746572206F66660A004865617465722025
:10347E0072756E2074696D653A2025756C0A00258B
:10348E007320253032643A25303264204E25303296
:10349E0064205325303264003E3E20000A002A2A62
:1034AE002052544320636869702070726573656E94
:1034BE00740A002A2A20454550524F4D2069732028
:1034CE006E6F7420696E697469616C697A65640ADD
:1034DE00002A2A2052656164696E67204545505264
:1034EE004F4D0A002A2A2050726F6772616D732049
:1034FE00282564293A0A005375004D6F0054750053
:10350E005765005468004672005361002E0000009B
:10351E00000000000000000000000000000000009D
:10352E00000000000000000000000000000000008D
:10353E001200007AC4FF77027A027D0280028302B3
:10354E008602890205373705000000006E0B241530
:10355E003C15000040001400540000000000D71479
:04356E0024153C15CF
:00000001FF
